:020000040800F2
:100000005032002081030008AB2B00085B2300085E
:10001000A92B0008CD0A00081B30000800000000D2
:100020000000000000000000000000008D02000839
:10003000CF0A000800000000E9020008512E000865
:100040009B0300089B0300089B0300089B03000818
:100050009B0300089B0300089B0300089B03000808
:100060009B0300089B0300089B0300089B030008F8
:100070009B0300089B0300089B0300089B030008E8
:100080009B030008000000009B0300089B0300087E
:100090009B0300089B0300089B0300089B030008C8
:1000A0009B0300089B0300089B0300089B030008B8
:1000B0009B0300089B0300089B0300089B030008A8
:1000C0009B0300089B0300089B0300089B03000898
:1000D0009B0300089B0300089B0300089B03000888
:1000E0009B0300089B0300089B0300089B03000878
:1000F0009B0300089B0300089B030008000000000E
:10010000000000009B030008000000009B030008A3
:100110009B030008000000009B030008E52E000878
:100120009B0300089B0300089B0300089B03000837
:100130009B03000800000000000000009B03000873
:100140009B0300089B030008000000000000000063
:10015000000000000000000000000000000000009F
:100160000000000000000000000000009B030008E9
:100170009B030008000000000000000000000000D9
:10018000000000009B0300080000000000000000C9
:10019000000000000000000000000000000000005F
:1001A00000000000000000009B0300089B03000803
:1001B0009B0300089B0300089B030008000000004D
:1001C000000000009B030008000000000000000089
:1001D0009B0300089B03000800F002F800F047F8BA
:1001E0000AA090E8000C82448344AAF10107DA4592
:1001F00001D100F03CF8AFF2090EBAE80F0013F09D
:10020000010F18BFFB1A43F00103184738690000BB
:1002100058690000103A24BF78C878C1FAD852074C
:1002200024BF30C830C144BF04680C607047000070
:100230000023002400250026103A28BF78C1FBD8EF
:10024000520728BF30C148BF0B607047752900F0C6
:100250005581002070471FB505F01CFF9DE8030085
:1002600000F09EFA00F09BF91FBD10B510BD00F024
:10027000ABFB1146FFF7EFFF03F012FD00F0C9FBE7
:1002800003B4FFF7F2FF03BC00F0FAFB2C4B196834
:100290000868B0E8F04F80F30988BFF36F8F4FF024
:1002A000000080F3118870470000000008480068D3
:1002B000006880F308884FF0000080F3148862B66D
:1002C00061B6BFF34F8FBFF36F8F00DF00BF00BF7A
:1002D00008ED00E0DFF80C00016841F470010160F6
:1002E000704700BF88ED00E0EFF30980BFF36F8F28
:1002F000134B1A681EF0100F08BF20ED108A20E97A
:10030000F04F106009B44FF0500080F31188BFF334
:100310004F8FBFF36F8F04F069FC4FF0000080F344
:10032000118809BC19680868B0E8F04F1EF0100F7A
:1003300008BFB0EC108A80F30988BFF36F8F704755
:1003400030000020EFF30580704700000B49D1F822
:1003500000C04A685CF8043B1068184442F8040B7B
:100360008C4528BFA1F1DC0C8A4228BFA1F1DC0238
:10037000C1F800C04A6020F000407047E42B002024
:100380000948804709480047FEE7FEE7FEE7FEE729
:10039000FEE7FEE7FEE7FEE7FEE7FEE70448054965
:1003A000054A064B70470000D52E0008D901000809
:1003B000502C002050320020502E0020502E0020C3
:1003C00070B5064600F0D0F9056806F10B0020F084
:1003D0000704B4429CBF002070BD2B466A68BAB1C6
:1003E0001068A04210D304F1080188423CBF506855
:1003F000586007D35168101941601168091B0160EA
:1004000058601460101D70BD13465268002AE7D171
:100410002146284600F0B0F90028DED170BD70B545
:100420000446051F00F0A0F90068002C14BF4468C2
:1004300070BD002C18BFAC423CBF20466468F8D3A6
:1004400001680A18AA4218BF456003D12A68054608
:100450001144016028684119A1421CBF6C6070BD45
:100460006168696021680844286070BD0FB41CB5DC
:10047000074B06AA7B4469460090059800F02FFAC6
:100480000020694600F03EFA1CBC5DF814FB000039
:100490008D0400002DE9F0410E4604460020206244
:1004A0002046E168884730B3252805D0D4E90121EA
:1004B0009047206A401CF2E7E16820460027884701
:1004C000050018D0A5F14100192802D820354FF4B5
:1004D00000673246294620462760FFF7B7FE40B145
:1004E000012804D0F61D26F007060836D8E7361D89
:1004F000D6E72846DAE7206ABDE8F0812DE9F04129
:100500000646002410687529314616A510D0AFF3B1
:100510000080002802DA404213A507E031688A070C
:1005200001D512A502E0490704D511A5012401E077
:10053000AFF3008000210A2206F1240709E0B0FB96
:10054000F2FCB0FBF2F302FB1C003030785418468A
:10055000491C0028F3D123462A463046BDE8F04125
:1005600000F05FB9000000002D0000002B0000002B
:10057000200000000B4910B5A1F17C020A4CC2E931
:100580003712372106E000EB104342F82130074BC9
:1005900000FB03400B1EA1F10101F4DC10BD0120A2
:1005A000E8E70000842B0020E119D666CD0D01009C
:1005B00040EA0103024630B59B0710D14FF00134E9
:1005C00000E008C208C91D1B9D4315EAC41FF8D0EE
:1005D00013F0FF0102F8011B0DD01B0AF8E711F818
:1005E000013B002B02F8013B05D011F8013B002B29
:1005F00002F8013BF3D130BD10B5431C02E010F806
:10060000011B71B18107FAD14FF0013202C88C1A77
:100610008C4314EAC211F9D0C01A0A0603D0C01ED6
:1006200010BDC01A10BD0A0401D0801E10BD090201
:10063000FCD0401E10BD032A40F2308010F0030CA5
:1006400000F0158011F8013BBCF1020F624498BF25
:1006500011F801CB00F8013B38BF11F8013BA2F1C2
:10066000040298BF00F801CB38BF00F8013B11F03D
:10067000030300F04C81083AC0F0088051F8043BB5
:10068000083A51F804CBA0E80810F5E7121D5CBF4A
:1006900051F8043B40F8043BAFF30080D20724BF7D
:1006A00011F8013B11F801CB48BF11F8012B24BF11
:1006B00000F8013B00F801CB48BF00F8012B704760
:1006C00002F0FF0343EA032242EA024200F002B8CA
:1006D0004FF000020429C0F0128010F0030C00F06B
:1006E0001B80CCF1040CBCF1020F18BF00F8012BE9
:1006F000A8BF20F8022BA1EB0C0100F00DB85FEAB7
:10070000C17C24BF00F8012B00F8012B48BF00F882
:10071000012B70474FF0000200B5134694469646F1
:10072000203922BFA0E80C50A0E80C50B1F1200104
:10073000BFF4F7AF090728BFA0E80C5048BF0CC0B2
:100740005DF804EB890028BF40F8042B08BF704710
:1007500048BF20F8022B11F0804F18BF00F8012B82
:10076000704770477047704700487047F42B00206F
:10077000704770477047704738B504460A460020F6
:100780006946AFF30080002808BF38BD02460099D3
:10079000204600F0F7F8012038BD012000F00CB928
:1007A000F8B5AFF30080054600200C46102000BFCE
:1007B0000646A819A0420DD9324669460020AFF37B
:1007C0000080070008BF00F0F7F80098A04218BFAB
:1007D0000546C419FFF7C8FF05600746F01D20F065
:1007E00007004619284600F00AF8B44208BFF8BDD1
:1007F000A21B31463868BDE8F84000F0C3B80021BC
:100800000160C0E9011070471020704710B500F07A
:10081000B5F8006810BD10B5044600F0AFF80460EC
:1008200010BD2DE9F0470D4699469246044600F169
:1008300024080168880604D5E06921F010012160D0
:1008400000E00120A84201DD471B00E00027A1696C
:100850007A1902EB0900081AA0612078C00602D4B8
:100860002046AFF30080002608E0D4E901211AF801
:1008700006009047206A401C761C20624E45F4DB3F
:100880002078C0060AD52046AFF3008006E0D4E900
:10089000012130209047206A401C2062381EA7F1B9
:1008A0000107F4DC07E0D4E9012118F805009047BE
:1008B000206A401C2062281EA5F10105F3DC2046B9
:1008C000AFF300802078000602D50220BDE8F08753
:1008D0000120FBE701694A1C02610878704700B5F6
:1008E0008FB0CDE901310021059105497944CDE969
:1008F000031011466846FFF7CDFD0FB000BD0000A4
:10090000E5FFFFFF0A6802F8010B0A60704710B5A7
:10091000203AC0F00B80B1E81850203AA0E81850F7
:10092000B1E81850A0E81850BFF4F5AF5FEA027CB8
:1009300024BFB1E81850A0E8185044BF18C918C027
:10094000BDE810405FEA827C24BF51F8043B40F8C8
:10095000043B08BF7047D20728BF31F8023B48BFAD
:1009600011F8012B28BF20F8023B48BF00F8012BEB
:100970007047000000487047EC2B0020004870478B
:10098000EC2B0020034640688C46002818BF8842A4
:100990003CBF03464068F8D318681844884207D023
:1009A0000CF1030020F00700001D411A521A014605
:1009B000081D0A60FFF733BD10B500F039F8BDE837
:1009C000104000F02FB870477546FFF7D3FFAE46D2
:1009D00005006946534620F00700854618B020B54B
:1009E000FFF7DCFCBDE820404FF000064FF00007A9
:1009F0004FF000084FF0000B21F00701AC46ACE8C7
:100A0000C009ACE8C009ACE8C009ACE8C0098D4633
:100A1000704710B50446AFF300802046BDE8104093
:100A2000FFF72EBC002801D000F02AB87047000064
:100A300010B5012805D0002103A000F027F80120FF
:100A400010BD09A1F8E7000053494752544D454DE8
:100A50003A204F7574206F662068656170206D655F
:100A60006D6F7279000000003A2048656170206D5A
:100A7000656D6F727920636F727275707465640052
:100A800001491820ABBEFEE72600020070B50546FE
:100A90000C460A2000E06D1C00F011F835B12878F2
:100AA0000028F8D102E0641C00F009F814B12078A5
:100AB0000028F8D1BDE870400A20AFF3008008B5E7
:100AC00069468DF800000320ABBE08BDFEE7704705
:100AD00072B6FEE72DE9F04FDFF8209200230126E1
:100AE0000324A9F1040B85B00F2709F1040AABF127
:100AF000040EFAE006FA03F52A407CD091F804C00F
:100B00000CF0030CBCF1010F02D0BCF1020F26D196
:100B1000D0F808C0CDF800C04FEA430C04FA0CF836
:100B2000CDF810C0DDF800C02CEA080CCDF800C0EC
:100B3000D1F80C80DDF810C008FA0CF8DDF800C020
:100B400048EA0C08C0F80880D0F804C02CEA050C6C
:100B50000D79C5F300159D4045EA0C0545600D79FA
:100B6000ED43AD070ED0C5684FEA430804FA08FC10
:100B700025EA0C05D1F808C00CFA08FC4CEA050C73
:100B8000C0F80CC00D7905F00305022D16D1DD0863
:100B900000EB850CCDF808C0DCF820805D074FEA3B
:100BA000D56C07FA0CF528EA05080D6905FA0CF56D
:100BB000DDF808C045EA0805CCF8205005684FEA82
:100BC000430CCDF808C004FA0CFC25EA0C0591F89A
:100BD00004C00CF00308DDF808C008FA0CF848EA75
:100BE0000508C0F800804D6815F4403F7CD0444DA6
:100BF000D5F860C000E077E04CF0010CC5F860C0AB
:100C00002D6E23F0030C05F0010500953D4D654464
:100C10000295AD684FEA837C4FEA1C7807FA08FC1E
:100C200025EA0C05B0F1904F06D0DFF8DCC0604536
:100C300005D14FF0010C20E04FF0000C1DE0DFF873
:100C4000CCC0604502D14FF0020C16E0DFF8C0C006
:100C5000604502D14FF0030C0FE0DFF8B8C06045EB
:100C600002D14FF0040C08E0DFF8ACC0604502D1BF
:100C70004FF0050C01E04FF0060C0CFA08FC4CEAB2
:100C8000050C029DC5F808C0D9F80050CC46D1F833
:100C9000048095435FEAC82800D51543CCF800507E
:100CA000DAF80050D446D1F8048095435FEA8828EA
:100CB00000D51543CCF80050DBF80050DC46D1F8E5
:100CC000048095435FEA883800D51543CCF800507E
:100CD000DEF80050F446D1F8048095435FEAC83846
:100CE00000D51543CCF800505B1C0A6832FA03F5B6
:100CF0007FF400AF05B0BDE8F08F000008040140AC
:100D000000100240000001400004004800080048B4
:100D1000000C00480010004800140048006908401A
:100D200000D0012070470AB181617047816270472D
:100D300001488068704700000C00002090F84120B6
:100D4000202A24D190F84020012A20D0012280F8C6
:100D50004020242280F841200268136823F0010318
:100D600013600268136823F48053136002681368E9
:100D70000B43136001680A6842F001020A602021F7
:100D800080F84110002180F840100846704702208A
:100D9000704790F84120202A22D190F84020012A63
:100DA0001ED0012280F84020242280F841200268D1
:100DB000136823F0010313600268136823F470635F
:100DC00043EA0121116001680A6842F001020A60E9
:100DD000202180F84110002180F84010084670471B
:100DE0000220704770B5040004D094F8410000253B
:100DF00010B106E0012070BD84F84050204600F09C
:100E000053FA242084F841002068016821F0010190
:100E100001606068216820F0706008612068816866
:100E200021F400418160E0680128A06830D040F4DE
:100E3000044021688860E0680228206841682AD060
:100E400021F40061416020684168144A1143416007
:100E50002068C16821F40041C160D4E9040108435D
:100E6000A16940EA01202168C860D4E9070108436C
:100E7000216808602068016841F001010160656433
:100E8000202084F84100256384F84250002070BD82
:100E900040F40040CDE741F40061D3E70080000258
:100EA0002DE9FF4F81B0044690F84100DDF838B0DD
:100EB0001F46904620287BD194F84000012877D027
:100EC000012084F84000FFF733FF0646012200901E
:100ED0001923D103204601F055FB002853D12120CE
:100EE00084F84100102084F8420000256564C4F8AD
:100EF000248067856563608D3A49FF274FF08079CC
:100F00004FF0007AFF2802D927854B4605E0608D17
:100F1000208500045346000C10D0226898F8000089
:100F20009062606A401C6062608D401E6085208D0A
:100F3000401E2085401CC2B2009101E000220091B9
:100F40002046029901F006FB14E000BF01F082FB8D
:100F5000C8B9606A216800788862606A401C606273
:100F6000608D401E6085208D401E80B22085618D81
:100F700001B160B1608D3246002859462046E5D166
:100F800001F03DFBE0B1012005B0BDE8F08F5B460C
:100F9000002280212046009601F0F4FA0028F2D1C8
:100FA000608DFF2805D927853A464B460095C7E74F
:100FB00016E0608D2085009594F828205346BFE701
:100FC00021682020C86121684A68074B1A404A609E
:100FD00084F8410084F8425084F840500020D3E760
:100FE0000220D1E70020008000E800FE2DE9FF4F3D
:100FF00083B00446DDE9108790F84100DDF84890A1
:101000009A469346202874D15FEA080014D09FB115
:1010100094F8400001286CD0012084F84000FFF7CC
:1010200087FE0646012200901923D103204601F0D5
:10103000A9FA002871D103E04FF4007060646CE0FD
:10104000222084F84100402084F842000025656495
:10105000C4F8248067856563CDE9009653465A46F7
:101060002046049901F012FA10B184F8405054E07F
:10107000618D3548FF274FF080784FF0007AFF29C7
:1010800004D927853A464346009005E0618D2185C5
:10109000009094F8282053462046049901F05AFA0B
:1010A0004B46002204212046009601F06BFAA0BBBB
:1010B0002068406A616A0870606A401C6062208D26
:1010C000401E81B22185608D401E6085608DD8B143
:1010D000D1B94B46002280212046009601F052FAF9
:1010E000D8B9608DFF2805D927853A464346009533
:1010F00006E026E0608D2085009594F82820534670
:101100002046049901F026FA608D0028C8D13246A5
:101110004946204601F073FA18B1012007B0BDE836
:10112000F08F21682020C86121684A68074B1A4067
:101130004A6084F8410084F8425084F8405000200E
:10114000ECE70220EAE700000024008000E800FE4F
:101150002DE9FF4F83B00446DDE9108790F8410088
:10116000DDF848909A469346202871D15FEA08003E
:1011700014D09FB194F84000012869D0012084F870
:101180004000FFF7D5FD0646012200901923D10348
:10119000204601F0F7F900286ED103E04FF400700B
:1011A000606469E0212084F84100402084F8420016
:1011B00000256564C4F8248067856563CDE90096E1
:1011C00053465A462046049901F092F910B184F82A
:1011D000405051E0608DFF274FF080784FF0007A4B
:1011E000FF2804D927853A464346009505E0608DDF
:1011F0002085009594F8282053462046049901F054
:10120000A9F932464946204601F024FAA0BB606A9B
:10121000216800788862606A401C6062608D401EB0
:101220006085208D401E80B22085618DD9B1D0B9F6
:101230004B46002280212046009601F0A3F9D8B940
:10124000608DFF2805D927853A464346009506E07C
:1012500026E0608D2085009594F82820534620468E
:10126000049901F077F9608D0028CAD132464946C9
:10127000204601F0C4F918B1012007B0BDE8F08F95
:1012800020682021C16120684268064B1A404260F4
:1012900084F8411084F8425084F840500020ECE774
:1012A0000220EAE700E800FEF0B597B004461421FA
:1012B00011A8FFF72FFA44216846FFF72BFA2A49B5
:1012C00020682A4C122700254FF44076884223D10B
:1012D000802000900795684600F06EF908B1FFF78E
:1012E000F7FBE06C40F00100E064E06C119600F068
:1012F000010016900420CDE91450CDE9127511A912
:101300004FF09040FFF7E6FBA06D40F48000A06531
:10131000A06D00F4800024E01549884222D1801598
:1013200000900895684600F047F908B1FFF7D0FB38
:10133000E06C40F00400E064E06C119600F0040002
:1013400016900820CDE91450CDE9127511A909486D
:10135000FFF7C0FBA06D40F08040A065A06D00F0DD
:101360008040169017B0F0BD0058004000100240B9
:101370000078004000080048024881684268114433
:10138000816070470C00002010B50024032000F09D
:101390009BF80F2000F008F808B1012401E000F0EC
:1013A00047F8204610BD000030B505461B4887B001
:1013B000816D41F020018165806D06A900F020005B
:1013C000009001A800F02AFB00F048FB1449154AE0
:1013D000B0FBF1F11448491E0260416040F2E7326F
:1013E0000021C0E90321816000F0D7FD040012D183
:1013F0000D4800F017FE04000DD1372000F036F83C
:10140000102D07D200222946372000F03DF807486A
:10141000056000E0012407B0204630BD0010024006
:1014200040420F0000140040D80100200C000020B2
:101430000D4808B5016E41F001010166016E01F031
:1014400001010091816D41F080518165806D002224
:1014500000F0805000900F21901E00F015F8BDE8BC
:10146000084000F0A1B8000000100240002809DB8D
:1014700000F01F02012191404009800000F1E020AE
:10148000C0F8001170470000F0B40E4B1B680C460A
:10149000C3F30223C3F10705042D00D90425191D48
:1014A000072901D2002300E0DB1E012606FA05F120
:1014B000491E214099409E40761E16403143F0BCA3
:1014C00001F0ACBD0CED00E0064900F00702086831
:1014D0004FF6FF03184040EA0220034A1043086019
:1014E000704700000CED00E00000FA052B492C4B82
:1014F0000A6832214A432B4940B1B0F5007F0868A1
:1015000029D020F4C06040F480602CE00868C0F36B
:101510004120022804D051F8800F20F4807022E08E
:10152000D1F8800020F48070C1F88000086820F4B1
:10153000C06040F400700860B2FBF3F0401C00E0B3
:10154000401E4A69520501D50028F9D14869400575
:101550000AD503207047C0F34120022806D051F875
:10156000800F40F48070086000207047D1F8800040
:1015700040F48070C1F88000086820F4C06040F436
:1015800000700860B2FBF3F0401C00E0401E4A69A6
:101590005205DBD50028F9D1D8E70000180000205B
:1015A00040420F00007000400248816841F48041D1
:1015B00081607047007000402DE9F84304460068E0
:1015C00000269D4D00035ED5A86D0027C00008D4FD
:1015D000A86D40F08050A865A86D012700F08050EC
:1015E0000090DFF85892D9F8001041F48071C9F8E2
:1015F0000010FFF79DFB804606E000BFFFF798FB59
:10160000A0EB080002282BD8D9F80000C005F5D5BA
:10161000D5F8900010F4407014D0216C814211D0A4
:10162000D5F89000D5F8901020F4407041F4803146
:10163000C5F89010D5F8901021F48031C5F89010BD
:10164000C5F89000C00711D0FFF772FB804641F249
:10165000883907E0FFF76CFBA0EB0801494501D989
:1016600003260BE0D5F890008007F3D5D5F890005D
:10167000216C20F440700843C5F890001FB1A86D9C
:1016800020F08050A8652078C00707D0D5F88800E2
:10169000616820F003000843C5F8880020788007BF
:1016A00007D5D5F88800A16820F00C000843C5F8DC
:1016B00088002078400707D5D5F88800E16820F039
:1016C00030000843C5F888002078000707D5D5F812
:1016D0008800216920F0C0000843C5F88800207800
:1016E000800607D5D5F88800616920F4406008437A
:1016F000C5F888002078400607D5D5F88800A1698C
:1017000020F440500843C5F888002078000607D52B
:10171000D5F88800E16920F440400843C5F8880006
:101720002088C00507D5D5F88800216A20F440300C
:101730000843C5F888002088800507D5D5F88800BB
:10174000616A20F440200843C5F8880020884005DD
:101750000FD5D5F88800A16A20F440100843C5F8D9
:101760008800A06AB0F5801F03D1E86840F48010BB
:10177000E860208800050FD5D5F88800E16A20F4DC
:1017800040000843C5F88800E06AB0F5800F03D137
:10179000E86840F48010E8602088C0040FD5D5F8D0
:1017A0008800216B20F040700843C5F88800206B4A
:1017B000B0F1807F03D1E86840F48010E8602088B1
:1017C0004FF0006180040ED5D5F88800626B20F0E0
:1017D00040601043C5F88800606B884203D1E86818
:1017E00040F48010E860208840040ED5D5F88800C9
:1017F000A26B20F040601043C5F88800A06B8842BF
:1018000003D1E86840F48010E860208800040FD518
:10181000D5F88800E16B20F040500843C5F88800F7
:10182000E06BB0F1805F03D1E86840F48030E8609D
:101830003046BDE8F8830000001002400070004010
:101840002DE9F0470E4605004FF0000725D0DFF8E0
:10185000AC81D8F8000000F00F00B0420CD2D8F8EC
:10186000001021F00F013143C8F80010D8F8000033
:1018700000F00F00B04210D12968614CC80741F256
:10188000883A5AD06868DFF87C91032808D002288B
:1018900020682DD0400500282CDB0120BDE8F08712
:1018A00020688001F9D5E06800F00302E068C0F329
:1018B0000310401C032A19D0534A00BFB2FBF0F0BA
:1018C000E268C2F306225043E268C2F34162521C4E
:1018D0005200B0FBF2F0484517D9A06810F0F00FA5
:1018E0000CD0880711D5A86840B10EE0474AE5E75B
:1018F0008003D0E700F0C4F8484506D9A06820F07E
:10190000F00040F08000A0608027A068696820F0A7
:1019100003000843A060FFF70BFA814606E000BF12
:10192000FFF706FAA0EB090151453AD8A0686968AB
:1019300000F00C00B0EB810FF2D12868810714D5BC
:10194000400703D5A06840F4E060A0602878000755
:1019500005D5A06820F4605040F4E060A060A06865
:10196000A96820F0F000084304E0802F03D1A068AC
:1019700020F0F000A060D8F80010404601F00F0100
:10198000B14216D9016821F00F0131430160FFF720
:10199000CFF9074607E000BFFFF7CAF9C11B514561
:1019A00001D903207AE7D8F8000000F00F00B04218
:1019B000F2D12878400705D5A068E96820F4E060F6
:1019C0000843A0602878000706D5A068296920F49C
:1019D000605040EAC100A06000F052F8A1680C4AD3
:1019E000C1F30311515C01F01F01C84009490860AF
:1019F00009480068BDE8F047FFF7D6BC0020024068
:101A00000010024000B4C4040024F40000127A0064
:101A1000C4600008180000200C0000200F220260A3
:101A20000C4A936803F003034360936803F0F003E8
:101A30008360936803F4E063C36092684FF4E063EB
:101A400003EAD20202610448006800F00F00086057
:101A5000704700000010024000200240054806497F
:101A600000688968054AC1F30221515C01F01F0139
:101A7000C84070471800002000100240D4600008E1
:101A8000184910B58868C0F381021748012A0BD0A5
:101A90008A684310C2F38102022A06D08A68C2F320
:101AA0008102032A03D0002010BD184610BDCA6869
:101AB00002F00304CA68C2F30312521C032C02D0C2
:101AC000B0FBF2F001E0B3FBF2F0CA68C968C2F300
:101AD00006225043C1F34161491C4900B0FBF1F0BB
:101AE00010BD0000001002400024F4002DE9F8436E
:101AF00004007AD02078F84DC00747D0A868E9687C
:101B000000F00C0001F003010C2802D0082817D0C7
:101B100001E0032914D06068B0F5803F17D0B0F51C
:101B2000A02F286817D020F480302860286820F47F
:101B3000802028606068E0B1FFF7FAF8064614E0FC
:101B40002868800322D560680028D2D01EE028686B
:101B500040F48030EDE740F480202860F7E700BFD4
:101B6000FFF7E6F8801B642870D828688003F7D553
:101B70000CE0FFF7DDF8064605E000BFFFF7D8F8F8
:101B8000801B6428F0D828688003F7D42078800769
:101B90004CD5A868E96800F00C0001F003010C289E
:101BA00002D004280DD001E002290AD0E068002804
:101BB00028682BD040F480702860FFF7B9F80646FB
:101BC00019E02868400502D5E068002891D06868CF
:101BD000217C20F0FE4040EA01606860BF48006858
:101BE000FFF7E2FB002800D120E072E1FFF7A0F848
:101BF000801B0228B8D828684005F7D56868217C82
:101C000020F0FE4040EA016068600FE020F4807040
:101C10002860FFF78DF8064605E000BFFFF788F85B
:101C2000801B0228A0D828684005F7D42078000738
:101C300029D560690028D5F8940013D040F0010040
:101C4000C5F89400FFF774F8064606E090E000BF80
:101C5000FFF76EF8801B022886D8D5F8940080071D
:101C6000F6D510E020F00100C5F89400FFF760F809
:101C7000064604E0FFF75CF8801B022878D8D5F808
:101C800094008007F6D42078400761D5A86D00261F
:101C9000C00008D4A86D40F08050A865A86D01264A
:101CA00000F0805000908E480168C90511D4016889
:101CB000804641F480710160FFF73AF8074604E07E
:101CC000FFF736F8C01B022852D8D8F80000C0052C
:101CD000F6D5A068012815D00528D5F8900016D0B3
:101CE00020F00100C5F89000D5F8900020F0040025
:101CF000C5F89000A06841F28838B8B1FFF718F82D
:101D000007460EE0D5F8900040F00100F0E740F003
:101D10000400C5F89000F5E7FFF70AF8C11B41453C
:101D200026D8D5F890008007F6D50CE0FFF700F82C
:101D3000074604E0FEF7FCFFC11B414518D8D5F863
:101D400090008007F6D41EB1A86D20F08050A865E1
:101D50002078800629D5A0690028D5F8980013D0EE
:101D600040F00100C5F89800FEF7E2FF064606E0E5
:101D700075E000BFFEF7DCFF801B02286FD8D5F8A6
:101D800098008007F6D510E020F00100C5F8980013
:101D9000FEF7CEFF064604E0FEF7CAFF801B0228CE
:101DA0005DD8D5F898008007F6D4E069F0B3A9684B
:101DB000C1F3810103295DD00228286820F08070DA
:101DC000286003D0FEF7B4FF04464BE0FEF7B0FFF7
:101DD000064604E0FEF7ACFF801B02283FD82868C7
:101DE0008001F7D4F4E908016FF00F0202EB011152
:101DF0000843218A5204490802EB4151A26841EA92
:101E000002210843217D4FF07E42490802EB4161E7
:101E10000843217B40EAC160E968324A1140084327
:101E2000E860286840F08070286000E05EE0E868C4
:101E300040F08070E860FEF77BFF044605E000BFDD
:101E4000FEF776FF001B022809D828688001F7D525
:101E50004CE000BFFEF76CFF001B022802D90320F4
:101E6000BDE8F88328688001F4D4E8681E4908407A
:101E7000E8603BE00128F3D0E868226A00F0030143
:101E8000914226D1616A00F0F002090110399142B5
:101E90001FD1A26A00F4FE41B1EB022F19D194F8D0
:101EA0002C2000F07841B1EBC26F12D1218E00F4EA
:101EB000C00249084905A1F50011914209D194F8E1
:101EC000341000F0C06049084906A1F10071814258
:101ED0000CD00120C4E70000001002400C000020DC
:101EE000007000400C809F01FCFFEEFE0020B7E771
:101EF000704770477047704770477047F0B590F86B
:101F00003C20012A3AD0012580F83C50022280F87A
:101F10003D2003685A689C68194E1A4FB34201D09D
:101F2000BB4204D122F4700C4A6842EA0C02DFF88A
:101F300058C002EA0C02D1F800C04CEA020CC3F807
:101F400004C00268B2420DD0B2F1804F0AD00F4BEC
:101F50009A4207D00E4B9A4204D0BA4202D00D4B9F
:101F60009A4204D1896824F080031943916080F873
:101F70003D50002180F83C100846F0BD0220F0BD25
:101F8000002C0140003401408FFFFFFD00040040A1
:101F90000008004000400140704710B5040003D025
:101FA00094F83D0010B107E0012010BD002084F836
:101FB0003C00204600F022F8022084F83D00211D5C
:101FC000206800F095FF012084F8480084F83E0066
:101FD00084F83F0084F8400084F8410084F842000F
:101FE00084F8430084F8440084F8450084F84600EF
:101FF00084F8470084F83D00002010BD08B5006853
:102000000649884208D10648016E41F40061016624
:10201000006E00F40060009008BD0000002C01403C
:102020000010024090F83D10012901D001207047B6
:10203000022180F83D100168CA6842F00102CA60BE
:102040000068104988420ED0B0F1804F0BD00E4985
:10205000884208D00D49884205D00D49884202D0F7
:102060000C49884207D181680B4A1140062906D0E5
:10207000B1F5803F03D0016841F00101016000200B
:1020800070470000002C01400004004000080040A0
:1020900000340140004001400700010070B50446D3
:1020A00090F83C000025012814D0012684F83C60FB
:1020B000022084F83D0022689068364B184020F4D6
:1020C0007F409060086870282ED010DC10F00F0F51
:1020D00003D021E04FF0020070BD4FEA2012072A22
:1020E0001AD2DFE802F0525252524A3840002A4BCC
:1020F000C21A984249D009DCB0F5805F0DD0B0F526
:10210000005F1CD0B0F1101F06D13EE0102A3CD079
:10211000202A3AD0502A38D0012584F83D6000208A
:1021200084F83C00284670BDCB68D1E901212068C5
:1021300000F03CFF2068816841F0770109E0CB683E
:10214000D1E90121206800F031FF2068816841F465
:1021500080418160E1E7CA684968206800F03AFF81
:102160005021206806E0CA684968206800F043FFF3
:102170006021206800F024FFCFE7CA684968206822
:1021800000F028FF40212068F4E72268014610464D
:10219000F0E7000088FFCEFF2000100070472DE917
:1021A000F04104460068C66805694FF00007A907BA
:1021B00013D5B10711D5F91E0161012020772068E0
:1021C00080698007204602D0FFF7E8FF04E000F0B6
:1021D000B7F8204600F0B5F82777680716D57007DE
:1021E00014D521686FF00400086102202077206870
:1021F000806910F4407F204602D0FFF7CFFF04E053
:1022000000F09EF8204600F09CF82777280715D5A7
:10221000300713D521686FF008000861042020778B
:102220002068C0698007204602D0FFF7B7FF04E0AE
:1022300000F086F8204600F084F82777E80616D5E7
:10224000F00614D521686FF010000861082020778F
:102250002068C06910F4407F204602D0FFF79EFF3F
:1022600004E000F06DF8204600F06BF82777E807EF
:1022700008D0F00706D021686FF001000861204601
:1022800000F060F8280601D4A80408D5300606D569
:1022900021686FF4025008612046FFF72AFEE80526
:1022A00008D5300606D521686FF480700861204695
:1022B000FFF71EFE680608D5700606D521686FF088
:1022C00040000861204600F047F8A80608D5B0068F
:1022D00006D521686FF0200008612046FFF70AFE4E
:1022E000E80208D5F00206D521686FF48010086175
:1022F0002046FFF701FEA80208D5B00206D52168E6
:102300006FF4001008612046FFF7F5FD680208D55C
:10231000700206D521686FF4800008612046FFF73F
:10232000ECFD28020AD5300208D521686FF40000C0
:1023300008612046BDE8F041FFF72EBEBDE8F08100
:102340007047704700680349884201D1FFF714B80D
:1023500070470000001400407047FEE701688A697A
:10236000D243920701D400228A6200688169C9437E
:10237000C90703D0816941F0010181617047000004
:102380002DE9F047044600688946002681693546F4
:102390001746C9064FF0200841D51021C1612FE032
:1023A000B9F1FF3F2CD0FEF7C3FCC11B494502D851
:1023B000B9F1000F24D12068416894F8422001F45B
:1023C00080418369DB431B0415D4B1F5804F12D0E3
:1023D000202A10D0416841F480414160FEF7A8FCFA
:1023E000074608E0FEF7A4FCC01B192803D945F0F6
:1023F0002005012604E020688069C0438006F1D4EE
:1024000020688069C043800602D5002EC8D003E052
:1024100016B92168C1F81C8045F004050126216821
:102420008869C20505D54FF4807245F00105CA617F
:102430000126410509D522684FF4806145F0080561
:10244000D1610126800502D40AE0800507D5216804
:102450004FF4007045F00205C861012600E086B126
:102460002046FFF77BFF54F8240B4168064A1140D1
:102470004160206A2843206284F81D800020A077F4
:1024800020773046BDE8F08700E800FE2DE9F843EC
:1024900004461646DDE9089714489846DAB20090DB
:1024A0000023204600F056F83A464946204600F000
:1024B000D1F8B8B9F5B2B8F1010F08D02168300AE7
:1024C00088623A464946204600F0C4F850B9206870
:1024D00085624B46002240212046009700F052F8CA
:1024E000002800D00120BDE8F88300000020008013
:1024F0002DE9F8430446164615489846DDE9089745
:10250000DAB2C3020090204600F024F83A46494669
:10251000204600F09FF8B8B9F5B2B8F1010F08D025
:102520002168300A88623A464946204600F092F80F
:1025300050B9206885624B460022802120460097D2
:1025400000F020F8002800D00120BDE8F88300004A
:102550000020008010B5C1F3090141EA0241026880
:10256000029C19432143506821F000414FF48063DD
:1025700003EA5453024C234398430843506010BD70
:10258000FF63FF032DE9F0411D4617460E46044642
:10259000DDF8188027E0424629462046FFF7F0FE86
:1025A00010B10120BDE8F081681C1CD0FEF7C0FB13
:1025B000A0EB0800A84200D8ADB92068806936EACF
:1025C00000000ED00020B8420DD154F8440F40F066
:1025D000200044F80409202060700020A0702070C2
:1025E000DFE70120EFE72068806936EA000004D0C9
:1025F0000020B842CFD00020D4E70120F9E770B521
:1026000016460D4604461EE0324629462046FFF790
:10261000B7FE08B1012070BDFEF78AFB801BA842FF
:1026200000D885B920688069C04380060BD554F86E
:10263000440F40F0200044F804092020607000207E
:10264000A0702070E6E720688069C0438006DBD474
:10265000002070BD70B516460D46044620E0324697
:1026600029462046FFF78CFE08B1012070BD681C8A
:1026700016D0FEF75DFB801BA84200D885B9206804
:102680008069C04380070BD554F8440F40F0200008
:1026900044F80409202060700020A0702070E4E756
:1026A00020688069C0438007D9D4002070BD000035
:1026B000204D214F214CDFF888904FF400764FF0E9
:1026C000010831462046FEF729FB48B9642001F095
:1026D000FAFA31462046FEF721FB08B987F8008058
:1026E00004212846FEF71AFB48B9642001F0EBFAF2
:1026F00004212846FEF712FB08B902203870402159
:102700002046FEF70BFB80B9642001F0DCFA402183
:102710002046FEF703FB40B999F8001019B10021DB
:1027200089F8001001E089F80080142001F0CBFA4C
:10273000C7E70000000C0048C50000200004004866
:102740000000002000F032BA00F046BA00F060BA93
:1027500000F08EBA00F096BA00F0DEBA10B5049C14
:10276000002C17D0403803F0BEF99FED0B1B53EC43
:10277000112B03F0CFF941EC100B00F061FC9FED41
:10278000081B51EC100B53EC112B03F0C3F903F0B1
:102790007BF9206010BD0000000000000000103F29
:1027A000A79196CADBA54C402DE9FC5F1D46DDE9EB
:1027B0000CAB1646894607004FF0000411D001A962
:1027C0003B2000F07FF8804669463C2000F07AF814
:1027D00040EA08049DF800009DF8041040EA01203A
:1027E0003880B9F1000F13D001A93D2000F06AF83C
:1027F00040EA040769463E2000F064F840EA070416
:102800009DF800009DF8041040EA0120A9F800009E
:1028100096B101A93F2000F055F840EA0407694647
:10282000402000F04FF840EA07049DF800009DF8B2
:10283000041040EA0120308095B101A9432000F046
:1028400041F840EA04066946442000F03BF840EABB
:1028500006049DF800009DF8041040EA012028803D
:10286000BAF1000F13D001A9452000F02BF840EA7F
:1028700004056946462000F025F840EA05049DF865
:1028800000009DF8041040EA0120AAF80000BBF106
:10289000000F13D001A9472000F014F840EA040506
:1028A0006946482000F00EF840EA05049DF8000053
:1028B0009DF8041040EA0120ABF800002046BDE876
:1028C000FC9F00000EB54FF4FA7201230292CDE98D
:1028D000001302460248D0210068FEF787FB0EBDB8
:1028E0002400002086B0144E002403AD0023009481
:1028F0001A46194604A80194FFF756FFC0B90023F1
:102900000094CDE901451A461946BDF91000FFF7BC
:1029100025FF00231A4603A9706802F0C1FA039844
:102920005A2802D0052002F0ADF803985A28DDD1CC
:10293000052002F0A7F8D9E7240000201CB5FFF716
:1029400009FFFFF7FFFE00210FA20846FFF704FF73
:10295000104A0021104801F0F1F910491824802292
:1029600048600020CDE9004003460DA10F4802F069
:102970007DFC0A4800230830CDE9004080220CA1EC
:102980000D4802F073FC1CBD5374617274696E676C
:1029900000000000A0600008492E00080000002090
:1029A00047616D655461736B00000000C13B000816
:1029B0004B45595461736B00B12600082DE9F04175
:1029C00086B014216846FDF7A5FE2D48C16C41F084
:1029D0002001C164C16C01F020010591C16C41F07E
:1029E0000101C164C16C01F001010591C16C41F0AC
:1029F0000401C164C16C01F004010591C16C41F096
:102A00000801C164C16C01F008010591C16C41F07D
:102A10000201C164C06C4FF0904700F002000590C5
:102A2000002220213846FEF77EF9DFF85880002288
:102A300020214046FEF777F9202601250024009644
:102A4000CDE90154694638460394FEF743F8042063
:102A50008DE8310069460C48FEF73CF80096CDE958
:102A60000154694640460394FEF734F878158DE822
:102A7000310069464046FEF72DF806B0BDE8F0810A
:102A80000010024000040048000C0048134810B534
:102A9000114901601249416000210122C0E902127E
:102AA000016141618161C1610162FEF79BF908B179
:102AB000FEF70EF800210948FEF740F908B1FEF7CD
:102AC00007F800210548FEF764F9002803D0BDE8A7
:102AD0001040FDF7FDBF10BD00580040E40000208D
:102AE000C285B240134810B51149016012494160D6
:102AF00000210122C0E90212016141618161C161CD
:102B00000162FEF76FF908B1FDF7E2FF0021094805
:102B1000FEF714F908B1FDF7DBFF00210548FEF7C9
:102B200038F9002803D0BDE81040FDF7D1BF10BD33
:102B30000078004038010020C285B24010B588B04E
:102B40000024184805940694039404940094019476
:102B5000134902940160A921C0E901144FF6FF71E5
:102B6000C0E9031444618461FFF717FA08B1FDF767
:102B7000AFFF4FF48050039003A90A48FFF78EFA85
:102B800008B1FDF7A5FF0094019469460548029439
:102B9000FFF7B4F9002801D0FDF79AFF08B010BD87
:102BA000002C01408C010020FEE7FEE710B5A0B02C
:102BB000002480216846FDF7ADFD0021204600F08D
:102BC000FFF88021684600F02FF9641CE4B2082C5D
:102BD000F3D320B010BD000070B50C4D002400BF31
:102BE00004F1B000C0B200F00BF9002000F008F9C9
:102BF000102000F005F905EBC410802100F014F955
:102C0000641CE4B2082CEBD370BD00002402002049
:102C10002DE9F0478146C81701EB5070C0F3C70596
:102C200020F00700081A1844C01DC11700EB5170AE
:102C30009246C0F3C7070024DFF8308011E02E1958
:102C4000082E0CD209F0FF01F0B200F0B9F809EB40
:102C5000C6121FFA8AF102EB080000F0E5F8641CC6
:102C6000E4B2BC42EBD3BDE8F087000024020020B0
:102C700080230360402008600120106000487047F6
:102C80002402002010B50224202000F0B9F82046CC
:102C900000F0B6F81F4804703F24A82000F0B0F8F8
:102CA000204600F0ADF80024D32000F0A9F820461B
:102CB00000F0A6F8402000F0A3F8A12000F0A0F852
:102CC000C82000F09DF80021084600F063F87F243A
:102CD000812000F095F8204600F092F8A42000F042
:102CE0008FF8A62000F08CF8D52000F089F880201D
:102CF00000F086F88D2000F083F8142000F080F8B2
:102D00000021012000F046F8BDE81040AF2000F09F
:102D100077B800001C0000202DE9F04117460E4650
:102D2000044600250BE03146204600F00FF8641CF5
:102D3000E4B20F2C02D90024B61CF6B26D1C7A5DE9
:102D4000002AF0D12846BDE8F081000070B5164693
:102D5000C206150E0C46072918D80F2816D8294682
:102D6000204600F02DF80A48082100EB0610064620
:102D700000F05AF8641CE0B2294600F021F806F190
:102D80000800BDE87040082100F04EB870BD00009A
:102D9000DC60000870B50C46050001D0012D0ED195
:102DA0000CB1012C0BD1DA2000F02AF8280100EB3D
:102DB0004410BDE87040801CC0B200F021B870BD66
:102DC00070B50E4D0C462978022905D1072803D885
:102DD000B030C0B200F014F8287802280CD17F2C53
:102DE0000AD804F00F0000F00BF8102000EB1410CC
:102DF000BDE8704000F004B870BD00001C00002069
:102E00001CB500218DF804108DF805004FF4FA7000
:102E100000900448022301AA78214068FEF740F898
:102E20001CBD00001C0000200EB54FF4FA728DE8A6
:102E3000070004480123402278214068FEF788F902
:102E40000EBD00001C000020012000F03CFFFBE74D
:102E500010B54FF0E020006902F060FA012803D0BD
:102E6000BDE8104001F06EBF10BD00B593B0382131
:102E70006846FDF74FFC14210EA8FDF74BFC00201F
:102E8000FEF734FB0220C10103914021049104218B
:102E9000CDE9080100905521CDE90A1007900C906A
:102EA0000D906846FEF722FE08B172B6FEE70F20CD
:102EB0000E9003200F90002010901190129004218A
:102EC0000EA8FEF7BDFC002801D072B6FEE713B0D5
:102ED00000BD00000248016841F4700101607047C4
:102EE00088ED00E00148FFF75AB90000D801002042
:102EF0002DE9F0430268264B264D274E274C4FF014
:102F00008049984207D0484505D0A84203D0B04236
:102F100001D0A04203D122F070074A683A43204F03
:102F2000DFF880C0DFF8808098420DD048450BD094
:102F3000A84209D0B04207D0A04205D0B84203D081
:102F4000604501D0404503D122F44075CA682A4348
:102F50004D6922F080022A4302608A68C2620A68D0
:102F60008262984207D0A04205D0B84203D06045A3
:102F700001D0404501D10969016301214161016925
:102F8000C90703D0016921F001010161BDE8F083A7
:102F9000002C0140000400400008004000340140C3
:102FA00000400140004401400048014010B58468E1
:102FB00042EA032224F47F440A432243826010BD84
:102FC0008268034B1A400A4342F007018160704750
:102FD0008FFFCFFF10B5036A046A24F00104046276
:102FE000846924F0F00444EA021423F00A020A433C
:102FF0008461026210BD10B5036A046A24F01004F3
:103000000462846923F0A00324F4704444EA023289
:1030100043EA01118261016210BDFEE70907090E52
:10302000002804DB00F1E02080F80014704700F075
:103030000F0000F1E02080F8141D70470000000030
:1030400010B5B94A2DED020B2DED0C8B82B00F9906
:1030500021F000409FEDB6CB90422CDBA0F1405315
:103060000E9AA3F17F631A430FD0B349884202DC62
:1030700016D10E98A0B19DED0E0B02B0BDEC0C8BDD
:1030800002B0BDE8104000F003BA0029C1BF9FEDB7
:10309000AC0B02B0BDEC0C8B02B0C8BF10BD16E08B
:1030A0000120FDF7B8FB02B0BDEC0C8B02B0BDE80F
:1030B000104000F0F9B9A44A9FEDA59B9FEDA6AB87
:1030C00090425EDAA6499FEDA8CB814208DBB0EEC4
:1030D0004C0AF0EE6C0A02B0BDEC0C8B02B010BDD5
:1030E0009DED0E0B53EC102B51EC100B02F012FD6A
:1030F00041EC180B9E480621B0EE480AF0EE680A33
:10310000784400F049F953EC182B51EC100B02F005
:1031100001FD41EC1B0B9748B0EE480AF0EE680A3F
:103120000421784400F038F953EC182B51EC100BC3
:1031300002F0F0FC53EC192B02F0A6FA41EC100B54
:1031400051EC1B0B53EC102B02F046FB41EC100B27
:1031500053EC102B9DED0E0B51EC100B02F0DAFC32
:1031600053EC1A2B02F0D4FD9DED0E1B53EC112BEA
:1031700002F0CEFD53EC1C2B02F0CAFD41EC100B0B
:10318000A9E79FED7D8B9FED7EBB9DED0E0B00298A
:1031900053EC192B51EC100B52DA02F075FA53EC88
:1031A000182B02F0B7FC41EC180B77480621B0EE63
:1031B000480AF0EE680A784400F0EEF853EC182B59
:1031C00051EC100B02F0A6FC41EC1D0B6F48B0EE69
:1031D000480AF0EE680A0421784400F0DDF853EC68
:1031E000182B51EC100B02F095FC53EC192B02F04C
:1031F0004BFA41EC190B51EC180B01F0D8FA41ECE9
:10320000180B53EC192B51EC1D0B02F0E5FA53ECA3
:10321000182B02F07FFC53EC1A2B02F051FE41EC0C
:10322000100B51EC180B53EC102B02F02DFA53EC51
:103230001B2B02F06FFC53EC1C2B02F069FD6DE0C0
:1032400002F066FD53EC182B02F064FC41EC180B05
:1032500001F0ADFA41EC1A0B00208DED00AB0090AF
:103260009DED000B51EC1A0B53EC102B02F00CFAF5
:103270009DED000B41EC1C0B53EC102B51EC100B93
:1032800002F048FC53EC182B02F042FD53EC1C2BCF
:1032900002F0A2FA41EC1C0B3D48B0EE480AF0EEF9
:1032A000680A0621784400F077F853EC182B51ECAB
:1032B000100B02F02FFC41EC1D0B3648B0EE480A13
:1032C000F0EE680A0421784400F066F853EC182BFD
:1032D00051EC100B02F01EFC53EC192B02F0D4F948
:1032E00041EC100B51EC1D0B53EC102B02F074FA57
:1032F00053EC1A2B02F00EFC53EC1C2B02F0C4F919
:1033000041EC100B53EC102B9DED000B51EC100B0E
:1033100002F0BAF953EC1B2B02F0FCFB41EC100B52
:10332000D9E60000000000000000F03F00000000AF
:10333000182D4454FB2109400000F07F00000000DC
:1033400000000000000000000000E03F000000005E
:10335000000000000000F03F075C143326A6913CFB
:103360000000603C00000000182D4454FB21F93F90
:10337000E4390000F2390000000000000000E03FE6
:1033800000000000000000402E3900003C39000021
:10339000403800004E38000070B504462DED028B19
:1033A0004D1E00EBC500B0EE408AF0EE608A90ED55
:1033B000000B35F0060017D053EC182B51EC100B16
:1033C00002F0A8FB41EC100B6D1E04EBC50090ED64
:1033D000001B51EC100B53EC112B02F055F941EC92
:1033E000100B35F00600E7D1022D36D0042D1CD08D
:1033F000062D1CBFBDEC028B70BD53EC182B51EC9D
:10340000100B02F087FB94ED0A1B53EC112B02F01A
:103410003BF953EC182B02F07DFB94ED081B53ECA9
:10342000112B02F031F941EC100B53EC182B51EC3D
:10343000100B02F06FFB94ED061B53EC112B02F006
:1034400023F953EC182B02F065FB94ED040B53ECBD
:10345000102B02F019F941EC100B53EC182B51EC26
:10346000100B02F057FB94ED021B53EC112B02F0F2
:103470000BF953EC182B02F04DFB94ED001B53ECB1
:10348000112B02F001F9BDEC028B41EC100B70BD69
:1034900010B553EC102B51EC100B02F0F5F841EC89
:1034A000100B10BD000000009FED050B10B553EC94
:1034B000102B51EC100B02F08FF941EC100B10BDEA
:1034C00000000000000000002DE9FF4F93B01F46F0
:1034D00022991498DDF88080401AC0B20C9008F14F
:1034E0000700C00809900C98002600F007000B9018
:1034F00014984044C0B20590C4E00C9800EBC6009C
:1035000000F0FF0A0AF10800C0B20A902298A8B1A0
:1035100014990A98884256D35E49C968884252D89D
:1035200005998A45FBD8FF2011901498824508D24E
:10353000A0EB0A01FF208840C0B200E0FF201190FC
:1035400007E005990A98884203D9411AFF20C8402C
:10355000F5E750484FEADA0281684A430792159A24
:1035600016FB072206920B9A72BBC36881469A45E6
:103570002AD24FF0080AB8F1080F00D2C246002440
:103580001BE013982044C5B2D9F80800854212D236
:1035900006982199204401F0EDF811995346014015
:1035A000079800220544D9F80400405D01F0F4F8C2
:1035B000D9F804104855641CE4B2BC42E1D3A8EB2E
:1035C0000A0000F0FF085BE00A9A4446D2084A432A
:1035D0000025109251E00B984446C0F10800814646
:1035E0000F90A04200D9C1461398284400F0FF0B69
:1035F0002848806883453ED206982199284401F0E6
:10360000B9F81199084023490390C9688A4511D235
:10361000079920485944129140684B460B9A405CE8
:10362000039901F0B9F81B4A129952685054A4EB5F
:103630000900C4B2FCB117480A99C26891421AD273
:10364000C9F1080101F0FF09A14500D9A1460F9A6F
:1036500003991048D140109A406893444B4610F8A3
:103660000B00002201F098F80A49496801F80B00A4
:10367000A4EB0900C4B26D1CEDB2BD42ABD3A046B1
:10368000761CF6B209988642FFF437AF17B0BDE852
:10369000F08F0000B0000020FFF756B870B5054C61
:1036A0002568002DFCD101252560FFF74FF800208B
:1036B000206070BDB0000020044A10B5111F081F23
:1036C000FFF746F801491039486010BDC0000020DE
:1036D0002DE9FE4F9B4691460F4606460025DFF832
:1036E000988043E0C5EBC50202EB0901CCB2082289
:1036F00000210092CDE901712038C0B21F4900EBD2
:1037000080004218052359462046FFF7DDFE0823B6
:10371000052259462046FFF7C1FF27B384B1A4F123
:10372000010A0AF0FF01FF235A46D8F8040001F00D
:1037300027F80AF0FF00082301225946FFF7AEFFE1
:10374000D8F80810491F8C420DD2641DE1B2FF2346
:103750005A46D8F8040001F013F8E0B20823012219
:103760005946FFF79BFF6D1CEDB2761C30780028A0
:10377000B8D1BDE8FE8F0000B0000020006900084D
:103780002DE9F0411D46164688460446FCF734FFF5
:10379000C0B2401CFCF714FE07462146FCF708FFA8
:1037A0002B46324641463846FFF792FF3846BDE881
:1037B000F041FCF734BE00002DE9F04FF3482DED49
:1037C000028B87B0C188A02933D28178FF2930D0FD
:1037D00000218246894600200221CDE90010EC4CF0
:1037E0000290022394ED010AEA4ABCEEC00A10EEF0
:1037F000100A94ED000AC1B2BCEEC00A10EE100A25
:10380000C0B2FFF761FE94ED010A08230222BCEE6C
:10381000C00A10EE100A94ED000AC1B2BCEEC00A54
:1038200010EE100AC0B2FFF739FFB9F1000F02D055
:1038300011E00121CDE794ED000AD4ED020A30EE4B
:10384000200A84ED000A94ED010AD4ED030A30EE5B
:10385000200A84ED010A94ED010A4FF0000BA04606
:10386000BCEEC00A94ED008A5F4610EE100A5E4678
:10387000C4B20025DAF80C205146D05DF0BBB00090
:1038800000EE100A0690B8EE400AB4EEC80AF1EE57
:1038900010FA36D8042000EB860000EE100AB8EECD
:1038A000400AB4EEC80AF1EE10FA2ADD082000EB57
:1038B00085030593A34224D80C2303EB8503A3427D
:1038C0001FD90123D3550021CDE9000105980291AC
:1038D000C1B206980323C0B2AE4AFFF7F5FD0598C2
:1038E0000823C1B206980322C0B2FFF7D7FEBAF888
:1038F00006004FF0010B5146401C00E001E0AAF821
:1039000006007F1C6D1CEDB2FFB2052DB2D3761CF4
:10391000F6B2202EADD308690E46801E00EE100AC6
:10392000B8EE400ADFED9C8AB4EEC08AF1EE10FAE0
:1039300015DD18EE101A994A914203DD4046C8ED94
:10394000008A06E000EE100A4046B8EE400A88ED14
:10395000000A90ED020AB1EE400A88ED020AB5EEC7
:10396000C08AF1EE10FA07D2C8ED008A98ED020A7B
:10397000B1EE400A88ED020A0027B9F1000F3AD1F2
:103980007169891F8C4236D3F02C34D2307900EE25
:10399000100AB8EE400AB4EEC08AF1EE10FA2ADB43
:1039A0000C3000EE100AB8EE400AB4EEC08AF1EE18
:1039B00010FA20D800EE101A01274546B8EE400A4A
:1039C00088ED010A98ED030AB5EEC00AF1EE10FA8F
:1039D00003DDB1EE400A85ED030AFCF7B7FC00EE0B
:1039E000100AF8EEC00A9FED6E1AB7EE000A10EE4C
:1039F000810A85ED020A59EA07001ED17069811E0D
:103A00008C4202D8BBF1000F17D0F02C02D9C8EDC0
:103A1000018A0CE0BBF1000F09D1401E00EE100A34
:103A2000B8EE400A88ED010AB078401EB07098EDFB
:103A3000030AB1EE400A88ED030A4FF0000A0221A2
:103A4000CDE9001ACDF808A098ED010A514A444684
:103A5000BCEEC00A0223113A10EE100A98ED000ADB
:103A6000C1B2BCEEC00A10EE100AC0B2FFF72CFDC6
:103A700094ED010A08230222BCEEC00A10EE100ADF
:103A800094ED000AC1B2BCEEC00A10EE100AC0B23A
:103A9000FFF704FE307858B3002586F800A02F46C3
:103AA0000024F068405DC8B90821CDE9001A394A00
:103AB00001EB84084FEA870908F0FF0109F0FF00D5
:103AC00003230F3ACDF808A0FFF7FEFC08F0FF0132
:103AD00009F0FF0008230322FFF7E0FD6D1C641CC2
:103AE000E4B2EDB2052CDCD37F1CFFB2202FD7D37C
:103AF000F2882CA103A8FCF7B9FC00231A4619464A
:103B000003A8FFF7E5FDB078FF2827D0002422E0C6
:103B1000B0784FF00801CDE9001A8442CDF808A032
:103B2000307C4FF0070300EBC400A0F11800C0B2D6
:103B300001D21D4A00E0174A0121FFF7C5FC307C85
:103B4000082300EBC4001838C0B207220121FFF798
:103B5000A5FD641CE4B2F0788442D9D3F088A02893
:103B600005D320233222002110A0FFF709FEB078F0
:103B7000FF2805D12023222200210EA0FFF700FEFE
:103B800007B0BDEC028BBDE8F08F0000C400002040
:103B9000F82A0020ED6800080000000000007043D3
:103BA0000000803025750000F968000857494E2153
:103BB0000000000047414D454F564552210000008E
:103BC0001CB52A4A111F081FFEF7C2FD274C183CDE
:103BD000E061FFF771FDFFF75FFD002204210A207D
:103BE00001F0C6F822490025086065702069400888
:103BF00000EE100A1F48B8EE400A80ED000A616925
:103C00000A3900EE101AB8EE400A80ED010ABEEE45
:103C1000000A80ED020A9FED180A80ED030AA02039
:103C200000F024FDA021E060FCF752FD0320E070CD
:103C3000A070E580208AFA2101EB50002071182441
:103C4000002380220DA11148CDE9004501F00EFBB3
:103C5000002380220EA11148CDE9004501F006FBAA
:103C6000FFF7AAFD322000F00DFFF9E7DC0000208D
:103C700028000020F82A00209A9919BF706C6174FE
:103C8000666F726D5F7461736B000000C93D000860
:103C90004D5055363035305461736B00E5280008BF
:103CA000FDF772FBFFF7E1F8FEF788FEFEF746FF2F
:103CB000FEF718FFFEF7EAFE00F012F8FEF73EFEF0
:103CC00000F020F8FEE710B5EFF3058111B16FF0B9
:103CD000050403E0002408B100F0D4FE204610BD26
:103CE000EFF3058010B16FF00500704704480168DC
:103CF00011B14FF0FF307047012101600020704783
:103D00008000002010B5EFF3058010B16FF00500C2
:103D100010BD08480168012902D04FF0FF3010BDE6
:103D2000054A002182F8141D0221016000F012FFF3
:103D3000002010BD800000200BE000E02DE9FF41D5
:103D40004FEA01034FF00005EFF30581039549BBEE
:103D500040B38027182100244AB3166806B13446C0
:103D600096691EB13146761E382E02D21679F607B4
:103D700003D0002004B0BDE8F081566906B1B70851
:103D8000D2F808C0BCF1000F0DD0D5685C2D18D357
:103D900012693AB136B18DE806103A46214601F073
:103DA00092FA03900DE0D6685EB912694AB903AA87
:103DB000CDE90012BAB2214601F058FA012800D02C
:103DC00003950398D6E700000EB53F4C0026082760
:103DD0002579CDE900760296207D0C230838C1B202
:103DE0003A4A2846FFF770FB207D08230838C1B205
:103DF0000C222846FFF752FCDFF8D490B8464F4615
:103E000099F80000A0B133482F490022083100681A
:103E100001F056F9A068692801DD012002E04B2875
:103E200005DA02206070082000F02CFE00E06670C9
:103E3000CDE900860296207D244A0838C1B20C23C1
:103E40000C322846FFF740FB207D08230838C1B21A
:103E50000C222846FFF722FC38780028607808D02A
:103E6000012802D0022802D00CE06D1C09E06D1E72
:103E700007E0012802D0022802D003E0ED1C00E098
:103E8000ED1EEDB26670FA2D01D9002504E020691F
:103E90000C38854200D9C5B2CDE900860296207D56
:103EA0000C230838C1B2094A2846FFF70DFB207DD4
:103EB00008230838C1B20C222846FFF7EFFB257112
:103EC0000A2000F0DFFD9AE7C4000020E168000846
:103ED00000000020280000202DE9F041134C0F467F
:103EE0000546E6682068001D00F098FC681C07D1B4
:103EF00037B12168BDE8F0410D48091D00F0DEBC76
:103F000020683544B5424560216805D2A06BBDE804
:103F1000F041091D00F0BABC606B091D00F0B6FC51
:103F2000A06A854200D2A562BDE8F0813000002081
:103F3000140B00202DE9F041054600F0CBFC2D4C80
:103F4000A068401CA06020682B4F10B1606930B39E
:103F50002BE02560A068012827D1002606EB86000B
:103F600007EB800000F084FC761C382EF6D3234843
:103F700000F07EFC2148143000F07AFC1F48283005
:103F800000F076FC1D483C3000F072FC1B485030BD
:103F900000F06EFC194860631430A06305E02068EF
:103FA000E96AC06A884200D82560606A401C606285
:103FB0006864E86A2169884200D9206100EB8000CA
:103FC00007EB8000291D00F079FC00F0A3FC60697C
:103FD00000280CD02068E96AC06A884207D20849E4
:103FE0004FF080500860BFF34F8FBFF36F8FBDE875
:103FF000F08100003000002064060020C40A002088
:1040000004ED00E038B500F065FC104C2068C8B93C
:104010000F4800F02DFC0E48143000F029FC0C482D
:10402000E060143020610A4B0020F03B009003F167
:10403000500210210A2000F0BCFE206010B105A142
:1040400000F0EAFCBDE8384000F064BC6C000020E1
:10405000180C0020546D72510000000030B4026C46
:104060000B46002A0BD0C1681144C1608468A1428C
:1040700001D30168C16030BC1846FCF7DCBA30BC23
:1040800070472DE9F041856B174604460026026C07
:1040900082B1C7B1E068FCF7CEFAE168206C091A7A
:1040A000E1602268914202D2A168081AE060022F02
:1040B00016D017E02068A8B9A06801F0A7F9064655
:1040C0000020A0600EE06068FCF7B5FA216C606823
:1040D00008446060A168884204D32068606001E001
:1040E00005B16D1E6D1CA5633046BDE8F08110B5AD
:1040F000044690F8590058B101280CD002280FD07E
:10410000502080F31188BFF34F8FBFF36F8FFEE70E
:10411000206B00F013FC2046BDE8104000F00EBC00
:1041200010BD000010484FF4C051420706D0C01D1A
:104130000D4920F00700411AC1F5C0510B4A002378
:104140000144C2E900030839183A21F0070111605F
:104150004B600B600B1AC0E9001393604FF00040F6
:104160005360506170470000F81200209C0000204E
:10417000144E154CA6F29C474FF08058DFF84C9037
:1041800012E000BF00F0A6FBF068C568281D00F033
:1041900045FBA068401EA0606068401E606000F0A3
:1041A000B9FB2846FFF7A3FF60680028EAD138680A
:1041B0000128F9D9C9F80080BFF34F8FBFF36F8F83
:1041C000F2E70000000B00203000002004ED00E0CA
:1041D00070B51D46049C51B1C4F80020C4E90F011C
:1041E0000121204600F018FE84F84C5070BD246078
:1041F000F4E700002DE9F05F8846DDE90B941546F1
:10420000834691009A460A9EA522206BFCF758FA35
:104210006FF00301206B01EB8501084420F00707D4
:10422000780707D0502080F31188BFF34F8FBFF37A
:104230006F8FFEE70025B8F1000F0FD05FF0000090
:10424000221818F8001082F8341018F8001011B174
:10425000401C1028F4D384F8435001E084F8345013
:10426000382E00D33726E662C4E91365201D00F01E
:104270000AFB04F1180000F006FB2461C6F13800C7
:104280006462A061656584F85850524659463846C4
:1042900000F05AFA2060B9F1000F01D0C9F80040CF
:1042A000BDE8F09F30B5114900E011460A6882422E
:1042B000FBD34B685C18844203D1406818444860C3
:1042C000084643681C18944209D1084C183C2468DD
:1042D000A24209D052681A4442600A681268026019
:1042E000814200D0086030BD0460F9E79C000020E6
:1042F00070B5002441600B4D0061914206D8D11A7F
:104300008269914206D2011D286907E09A4203D2D0
:10431000994201D3012403E0011DE86800F0B6FAD8
:10432000204670BD6C00002010B5044600F0D2FAA3
:10433000A06B28B15FF0000400F0ECFA204610BD3D
:104340000124F9E730B589B03C4D6EE004980028AF
:1043500006DADDE90601059A90470498002864DB37
:10436000069C606910B1201D00F058FA03A800F007
:10437000D7F8024604980A2857D2DFE800F005056E
:10438000052D334A05052D3394F8280040F001002F
:1043900084F828000599A069059B01442046FFF791
:1043A000A7FF68B3216A2046884794F82800400791
:1043B0003BD5002000900598A169002342181946BA
:1043C000204601F02DF9D8B9502080F31188BFF3B1
:1043D0004F8FBFF36F8FFEE714F8280F20F0010016
:1043E000207022E094F8280040F0010084F82800B2
:1043F0000598A06128B1811813462046FFF778FF81
:1044000013E0502080F31188BFF34F8FBFF36F8FFD
:10441000FEE794F82800810703D4204600F08EFAC6
:1044200003E020F0010084F82800002204A9286895
:1044300000F046FE002889D109B030BD6C00002094
:104440002DE9FC410F46054600F0C8FB01A800F02D
:1044500067F80446019818B101F050F8BDE8FC81F6
:10446000254EAFB130690068D0B30027291B3A460A
:10447000306800F0E5FA01F041F80028EED11F495C
:104480004FF080500860BFF34F8FBFF36F8FE5E7A9
:10449000A542EBD801F032F8F0682746C068C4683E
:1044A000201D00F0BBF994F82800410719D5A06938
:1044B0002B4641193A462046FFF71AFFA8B10020C3
:1044C0000346014600902A46204601F0A9F860B94B
:1044D000502080F31188BFF34F8FBFF36F8FFEE73B
:1044E00007E020F0010084F82800216A2046884770
:1044F000B4E70127BAE700006C00002004ED00E0FB
:104500000648416B096829B1416BC968C9684968A7
:10451000816270474FF0FF31FAE700003000002061
:1045200070B5054600F008FF064E0446B0688442A8
:1045300003D200F009F8012000E0002028602046A6
:10454000B46070BD6C000020F8B5194D20E0C06863
:10455000C4680668201D00F061F9216A204688477A
:1045600094F82800400713D5A0693044B04206D91A
:1045700024616060211DE86800F088F908E00020EF
:104580000346014600903246204601F049F838B112
:10459000E86801680029DAD12969C5E90310F8BD86
:1045A000502080F31188BFF34F8FBFF36F8FFEE76A
:1045B0006C00002008484068401C4FF0500080F319
:1045C000118804D0BFF34F8FBFF36F8FFEE7BFF3A7
:1045D0004F8FBFF36F8FFEE7A4000020074CE06809
:1045E000016841B1C0680021D0F80000FFF728FF42
:1045F000FFF7A8FEF3E701210020F7E76C00002099
:104600002DE9F041044600F065F994F9455004F1B4
:10461000240609E0606A48B1304600F037FF08B16F
:1046200000F05EFA6D1E6DB2002DF3DC4FF0FF3628
:1046300084F8456000F06EF900F04CF994F94450AC
:1046400004F1100709E0206948B1384600F01EFF68
:1046500008B100F045FA6D1E6DB2002DF3DC84F850
:104660004460BDE8F04100F055B900002DE9F0418B
:104670000546002700F0B2FA324E306808B9FFF75D
:1046800051FD706905424ED1C5B3083568070ED09B
:1046900005F00700C0F108000544680707D0502066
:1046A00080F31188BFF34F8FBFF36F8FFEE72DB3F9
:1046B0007068854237D82348183001460C6801E0FD
:1046C00020460C466168A94202D221680029F7D130
:1046D00031688C4227D0076821680160606808371C
:1046E000411B10290FD96019420708D0502080F3D0
:1046F0001188BFF34F8FBFF36F8FFEE713E0416068
:104700006560FFF7CFFD61687068401A7060B2683D
:10471000904200D2B060706901430020C4E90001FA
:10472000F068401CF06000F0E9FE780707D05020E8
:1047300080F31188BFF34F8FBFF36F8FFEE73846CA
:10474000BDE8F0818400002010B5031F4FF0807495
:104750001C601B1F21F001011960191F044B0B6025
:1047600014390A60091F6FF0020244380A6010BD54
:10477000B54500080078002901D0C043C0B2704799
:1047800010B5044CD208A46802FB0411425C1A4321
:10479000425410BDB000002010B501249C40641E9E
:1047A00021409440A04391400143C8B210BD00B5E0
:1047B0002DED048B83B041EC190B01F0B5FA41ECFF
:1047C000180B18EE100A18EE901A8DED008B0028C9
:1047D00018BF0120084320F00040C0F17F6000F1C5
:1047E000E040C00F14D019EE101A19EE900A8DEDAA
:1047F000009B002918BF0121084320F00040C0F1B0
:104800007F6000F1E040C00F04BF0120FCF703F817
:1048100051EC180B03B0BDEC048B00BDD0E90132A4
:1048200001699A60D0E901235A604A68824201D145
:1048300082684A60002202610868401E08600868B9
:1048400070470000034B036003F15C0008608020A8
:1048500010607047400C0020044B036003F15C00C3
:1048600008604FF480701060704700009C0E0020BC
:1048700000F108014FF0FF32C0E90112C16001618F
:1048800000210160704700210161704730B50B685D
:104890005A1C02D000F1080202E0026904E022463C
:1048A000546825689D42FAD953684B6099608A60C4
:1048B000516008610168491C016030BD42684A606E
:1048C00093688B6093685960916008610168491C26
:1048D00001607047502080F31188BFF34F8FBFF302
:1048E0006F8F0A494868401C486001280CD108486D
:1048F000006810F0FF0F07D0502080F31188BFF33D
:104900004F8FBFF36F8FFEE770470000A4000020B9
:1049100004ED00E00849486828B1401E486001D114
:1049200080F311887047502080F31188BFF34F8FB8
:10493000BFF36F8FFEE70000A400002070B50028D1
:104940002AD0164DA0F1080460686969084207D1B1
:10495000502080F31188BFF34F8FBFF36F8FFEE7B6
:1049600022683AB1502080F31188BFF34F8FBFF314
:104970006F8FFEE78843606000F030F96068696817
:10498000084468602046FFF78DFC2869401C2861B8
:10499000BDE8704000F0B2BD70BD00008400002092
:1049A0004FF0E02000210161816105494FF47A72E6
:1049B0000968B1FBF2F1491E4161072101617047AD
:1049C0001800002010B5FBF7BDFC114910280ED3CC
:1049D00000F1E02090F8F0030A78904207D25020CE
:1049E00080F31188BFF34F8FBFF36F8FFEE7094845
:1049F0000068896800F4E060884207D9502080F39D
:104A00001188BFF34F8FBFF36F8FFEE710BD00001B
:104A1000A40000200CED00E010B5084B002200BF00
:104A200053F832401CB1521C082AF9D310BD43F888
:104A3000321003EBC201486010BD000024060020C4
:104A400070B515460E460446FFF744FF94F944102E
:104A50000020491C01D184F8440094F94510491CF8
:104A600001D184F84500FFF755FFA06B28B92A460D
:104A7000314604F1240000F051F82046BDE87040B2
:104A8000FFF7BEBD10B5020014D00F48006B38B15F
:104A9000502080F31188BFF34F8FBFF36F8FFEE775
:104AA00000F09CF800211046FFF716FA00F026FDF2
:104AB000002807D105494FF080500860BFF34F8FA1
:104AC000BFF36F8F10BD00003000002004ED00E048
:104AD00002490A6A0260C9684160704730000020DC
:104AE00001490120C86170473000002010B50C4614
:104AF00050B1094909681831FFF7C8FE2046BDE8E2
:104B000010400121FFF7E8B9502080F31188BFF36E
:104B10004F8FBFF36F8FFEE73000002070B5144653
:104B20000D4668B10A4909681831FFF7C7FE0CB194
:104B30004FF0FF3521462846BDE87040FFF7CCB95D
:104B4000502080F31188BFF34F8FBFF36F8FFEE7C4
:104B50003000002030B587B00024039405AA04A9D2
:104B600003A80494FFF76EFEDDE903010094CDE98C
:104B70000110002315A11748059A00F0A4FB164D5B
:104B80000028E8621FD000F01BFD012809D0401C5E
:104B900019D1502080F31188BFF34F8FBFF36F8F6F
:104BA000FEE7502080F31188BFF34F8FBFF36F8F64
:104BB0004FF0FF30A86201206861EC6007B0BDE8EB
:104BC000304000F045B807B030BD000049444C45C6
:104BD0000000000071410008300000200248016B15
:104BE000491C01637047000030000020164810B5D2
:104BF000016B11B10121C16110BD0021C1610169C9
:104C0000124A01E0B9B1491E01EB810352F8233089
:104C1000002BF7D001EB810302EB830202F10804C1
:104C200053685B685360A34201D15B685360DA68E4
:104C30000260016110BD502080F31188BFF34F8FD7
:104C4000BFF36F8FFEE700003000002064060020F5
:104C50001CB537480168374A914207D1502080F38C
:104C60001188BFF34F8FBFF36F8FFEE700683149A4
:104C7000491E884207D1502080F31188BFF34F8F1F
:104C8000BFF36F8FFEE72C4908780190FF20087072
:104C900008788DF800009DF800009DF8002000F0D5
:104CA000F000904207D0502080F31188BFF34F8F5F
:104CB000BFF36F8FFEE79DF80000204C00F050001E
:104CC00020700720A06005E09DF8002052008DF8BC
:104CD0000020401E9DF800201206F5D4A060032895
:104CE00007D0502080F31188BFF34F8FBFF36F8F31
:104CF000FEE74FF44070A060019808700C48203027
:104D0000016841F470010160016841F07041016087
:104D1000FFF746FE00206060FBF7DCFA08480168F8
:104D200041F040410160FBF7C1FA00201CBD0000CA
:104D300000ED00E071C20F4100E400E0A40000209B
:104D400034EF00E010B5502080F31188BFF34F8F8F
:104D5000BFF36F8F00F0F6FA18B104494FF080509E
:104D60000860002080F3118810BD000004ED00E011
:104D7000F8B517460E46050013D005FB06F0503077
:104D8000FFF774FC04000AD0002084F8460004F108
:104D900050023B46314628460094FFF719FA204658
:104DA000F8BD502080F31188BFF34F8FBFF36F8F92
:104DB000FEE738B5049D18B153B1CAB181B120E006
:104DC000502080F31188BFF34F8FBFF36F8FFEE742
:104DD000502080F31188BFF34F8FBFF36F8FFEE732
:104DE000502080F31188BFF34F8FBFF36F8FFEE722
:104DF00039B1502080F31188BFF34F8FBFF36F8F0D
:104E0000FEE750241C46012384F846302B460094CC
:104E1000FFF7DEF9204638BD70B50D46040025D0F9
:104E2000FFF758FDD4E90F20216802FB0011A160B3
:104E30000021A163216861600A46D4E90F01401E88
:104E400000FB0121E16021464FF0FF3001F8440FE3
:104E5000487004F110008DB1FFF70AFD04F1240041
:104E6000FFF706FDFFF756FD012070BD502080F3CF
:104E70001188BFF34F8FBFF36F8FFEE721690029C1
:104E8000F0D000F003FB0028ECD004494FF0805034
:104E90000860BFF34F8FBFF36F8FE3E704ED00E0CF
:104EA0002DE9FF4782B01D468A464FF000080400F6
:104EB00003D0BAF1000F08D011E0502080F3118820
:104EC000BFF34F8FBFF36F8FFEE7206C38B15020D8
:104ED00080F31188BFF34F8FBFF36F8FFEE7022D72
:104EE0000AD1E06B012807D0502080F31188BFF36E
:104EF0004F8FBFF36F8FFEE700F010FA3F4F4FF078
:104F000000094FF0805648B9049838B1502080F31A
:104F10001188BFF34F8FBFF36F8FFEE7FFF7DAFC07
:104F2000A06BE16B884207D3022D05D00498D0B165
:104F3000B8F1000F1AD01EE02A4651462046FFF76E
:104F4000A0F8616A19B104F1240000F09FFA20B1C1
:104F50003E60BFF34F8FBFF36F8FFFF7DBFC012085
:104F600006B0BDE8F087FFF7D5FC22E06846FFF702
:104F7000AFFD4FF00108FFF7CDFCFFF72FFEFFF765
:104F8000A9FC94F94400401C01D184F8449094F9A0
:104F90004500401C01D184F84590FFF7BBFC04A9F3
:104FA000684600F029F930B12046FFF729FB00F0F0
:104FB000A5FA0020D4E7FFF78DFCA06BE16B8842D7
:104FC00013D1FFF7A7FC04F110000499FFF78EFD41
:104FD0002046FFF715FB00F091FA00289ED13E60B5
:104FE000BFF34F8FBFF36F8F98E7FFF793FC204617
:104FF000FFF706FB00F082FA90E7000004ED00E006
:105000002DE9F0471F4690468946040003D0B9F1C8
:10501000000F08D011E0502080F31188BFF34F8FAC
:10502000BFF36F8FFEE7206C38B1502080F31188FA
:10503000BFF34F8FBFF36F8FFEE7022F0AD1E06BF4
:10504000012807D0502080F31188BFF34F8FBFF3A2
:105050006F8FFEE7FFF7B6FC5020EFF3118680F369
:105060001188BFF34F8FBFF36F8FA06BE16B884246
:1050700006D3022F04D0002086F31188BDE8F08704
:1050800094F94550A06B3A4649462046FEF7F9FF91
:10509000681C04D06D1C84F845500120ECE7606A60
:1050A0000028FAD004F1240000F0F0F90028F4D030
:1050B000B8F1000FF1D00121C8F80010EDE70000B1
:1050C0002DE9F747002683B08A46040003D0BAF1E1
:1050D000000F08D011E0502080F31188BFF34F8FEC
:1050E000BFF36F8FFEE7206C38B1502080F311883A
:1050F000BFF34F8FBFF36F8FFEE700F00FF9DFF8BC
:10510000F4804FF000094FF0805748B9059838B146
:10511000502080F31188BFF34F8FBFF36F8FFEE7EE
:10512000FFF7D8FBA56BC5B151462046FEF796FFA9
:105130006D1EA563206950B104F1100000F0A6F9BE
:1051400028B1C8F80070BFF34F8FBFF36F8FFFF720
:10515000E1FB012006B0BDE8F087059808B11EB15B
:1051600006E0FFF7D7FB27E06846FFF7B1FC012612
:10517000FFF7D0FBFFF732FDFFF7ACFB94F94400DB
:10518000401C01D184F8449094F94500401C01D1A1
:1051900084F84590FFF7BEFB05A9684600F02CF89F
:1051A000002820460AD0FFF72BFA00F0A7F9204686
:1051B000FFF7BAF80028B3D00020CBE7FFF7B4F828
:1051C00090B104F124000599FFF790FC2046FFF709
:1051D00017FA00F093F90028A2D1C8F80070BFF3C5
:1051E0004F8FBFF36F8F9BE72046FFF709FA00F060
:1051F00085F995E704ED00E02DE9F0410C46050046
:1052000011D0C4B1FFF766FB174BDA686E682068EF
:10521000911B471C17D02F681B6A9F4219D09642DA
:1052200017D8012410E0502080F31188BFF34F8F6E
:10523000BFF36F8FFEE7502080F31188BFF34F8FCD
:10524000BFF36F8FFEE70024FFF764FB2046BDE845
:10525000F081884205D9401A20602846FFF738FCC3
:10526000F1E700202060DCE7300000202DE9FF5F3F
:105270008346DDE90E87994616468A469000FFF779
:10528000F5F905001CD05C20FFF7F0F9040014D0FC
:105290000020256384F85900CDE90240CDE900875C
:1052A0004B46324651465846FEF7A4FF2046FEF7CD
:1052B00041FE012004B0BDE8F09F2846FFF73EFB09
:1052C0004FF0FF30F6E7F0B585B0DDE90B640A9DDD
:1052D000A6B1DCB15C2700972663022684F85960EA
:1052E000002604AFCDE90246CDE90057FEF782FF64
:1052F0002046FEF71FFE049805B0F0BD502080F355
:105300001188BFF34F8FBFF36F8FFEE7502080F3FC
:105310001188BFF34F8FBFF36F8FFEE705484169D8
:1053200019B1006B18B100207047012070470220AE
:1053300070470000300000200148C068704700003E
:10534000300000202DE9F0412E4C0027206B28B1C1
:10535000A069401CA0613846BDE8F081E668761C73
:10536000E66013D1606B006838B1502080F311887B
:10537000BFF34F8FBFF36F8FFEE7606BA16B61636D
:10538000A063206A401C2062FFF7BAF8A06ADFF829
:105390007880864209D3606B0068A0B1606BC068FA
:1053A000C5686868864211D2A0622068C06A00EBB6
:1053B000800158F82100012800D90127E069002860
:1053C000C9D00127C7E74FF0FF30EDE7281DFFF7F1
:1053D00025FAA86A18B105F11800FFF71FFAE86A64
:1053E0002169884200D9206100EB800108EB81002F
:1053F000291DFFF763FAE86A2168C96A8842CAD39F
:105400000127C8E7300000206406002070B50400C2
:105410004FF0000133D01B4D2868844207D0502044
:1054200080F31188BFF34F8FBFF36F8FFEE7206DBE
:1054300038B1401E2065E36CE26A9A421FD040B149
:105440001DE0502080F31188BFF34F8FBFF36F8FA3
:10545000FEE7201DFFF7E2F9E06CE062C0F13800E2
:10546000A061E06A2969884200D92861064900EBF9
:10547000800001EB8000211DFFF720FA0121084682
:1054800070BD0000300000206406002070B5C068C8
:10549000C46854B104F118000646FFF7BFF9144D73
:1054A000286B50B13146134815E0502080F3118825
:1054B000BFF34F8FBFF36F8FFEE7201DFFF7AEF9ED
:1054C000E06A2969884200D928610B4900EB800015
:1054D00001EB8000211DFFF7F1F9E06A2968C96A34
:1054E000884202D90120E86170BD002070BD000033
:1054F00030000020EC0A0020640600202DE9F0476F
:105500002C4D00242746286B38B1FFF7E3F9286BB0
:10551000401E2863286B40B146E0502080F311887C
:10552000BFF34F8FBFF36F8FFEE7A968224E0120B4
:10553000D1B3A6F5916980463068E0B1F068C468DF
:1055400004F11800FFF76AF9201DFFF767F9E06A18
:105550002969884200D9286100EB800109EB8100AC
:10556000211DFFF7ABF9E06A2968C96A8842E3D3D5
:10557000C5F81C80E0E70CB1FEF7C2FFAC694CB186
:105580004FEA0806FFF7DEFE00B1EE61641EF9D1B6
:105590000020A861E86938B1084901273807086088
:1055A000BFF34F8FBFF36F8FFFF7B4F93846BDE8F5
:1055B000F087000030000020EC0A002004ED00E03D
:1055C00010B586B0FEF71EFD114C2068B8B1002062
:1055D0000390049005AA04A903A8FFF73DF9DDE9AB
:1055E000032102208DE8070000230AA10B48059A39
:1055F000FFF769FE606010B106B0012010BD5020B9
:1056000080F31188BFF34F8FBFF36F8FFEE7000069
:105610006C000020546D722053766300DD45000855
:105620002DE9FF411E46134602000A9D4FF000007F
:1056300016D0144C2768002F0FD0CDE9001302922A
:10564000062917DAFFF76AFE02284FF000030FD091
:10565000002269462068FFF723FC04B0BDE8F08112
:10566000502080F31188BFF34F8FBFF36F8FFEE799
:105670002A46EEE70023324669463846FFF7C0FC6B
:10568000EBE700006C00002010B591EA030F48BF63
:1056900083F0004300F11C84841A71EB030C05D2E3
:1056A000121943EB0C03001B61EB0C01DFF824E142
:1056B0004FEA1154A4EB135C1EEA430F18BF9EEA95
:1056C000445F73D023EA0E03DCF1200E21EA04517B
:1056D00043F4801332D322FA0CFE10EB0E0023FAAF
:1056E0000CFE41EB0E01CCF1200E03FA0EFE10EB86
:1056F0000E0051F10001B1F5801FCCF1200E32D225
:1057000001EB045112FA0EF2BDE8104058BF704789
:10571000401C38BF5FEA420218BF7047002814BF20
:1057200020F0010041F100014FEA410313F5001F91
:1057300038BF7047A1F1C04100F0E4BA012A43EB41
:105740000302ACF1200CDCF11F0E32BF4FF0000E53
:1057500023FA0CF310EB030041EB0451B4EB115F9F
:10576000D0D0A1EB045101F5801149085FEA300067
:1057700001EB04510ED350F1000038BF12FA0EFEB7
:1057800008D1BDE81040C9E7401C38BF5FEA4202BB
:10579000CAD1C3E7BDE810404FEA410313F5001F2B
:1057A00038BF7047A1F1C04100F0ACBA9EEA445F37
:1057B00008D011EA5E0FBDE8104004BF01F00041BF
:1057C00000207047BDE8104070B500F04DFA00BFF2
:1057D00064FBBE3E0000E0FF2DE9C04130B4DFF8BD
:1057E000A0C23CEA111418BF3CEA131400F0EC808C
:1057F00081EA03051CEA111444EAD57418BF1CEAB7
:10580000131500F0C780A4EB05044FF0004545EAEE
:10581000C12145EAC32341EA505143EA525304F1FE
:105820007F74994204F500344FEAC0204FEAC22247
:1058300008BF904200F09C804FEA13650FF24016BB
:10584000765D4FEA134506FB05F7C7F1807706FB47
:1058500007F74FEAD737A7FB03687642C8F58038C9
:10586000A7FB06CE38BFA8F1010807FB08E64FF0FA
:10587000000EA6FB028CE6FB03CEDCF1000CCEF1A1
:10588000004E38BFAEF1010EA6FB0C584FF00007DA
:105890004FF00005E6FB0E87A1FB08C6A0FB07CE74
:1058A00016EB0E0645F10005E1FB076515F1E04E2C
:1058B0007EBFA4F580345FEA46066D4116F180078D
:1058C00045F100054FEA17274FEA066647EA0567E4
:1058D000A6F1DE46B6F1805F4FEA15251FD938469E
:1058E00024F0010C05EBC471BCF1FE6F01EB0C114F
:1058F00002D8F0BCBDE8008124425CBF01F5801EE7
:105900009EEAC47F02D4F0BCBDE80081244238D4B2
:10591000F0BCA1F1C041BDE8004100F0F3B94FEA8D
:10592000D22242EA43524FEAD323A7FB02864FEA30
:10593000D02040EA415007FB03661EEA0E0F4FEAF3
:10594000D12105FB026658BFA6EB0056B6EB005608
:105950004FEA520E4EEAC37E18EB0E0E56EB530E74
:10596000BDD518EB02085E417F1C55F10005B6E776
:105970004FF480154FF000074FF000064FF000087D
:10598000ADE7F0BC4FF0000001F1C04101F0004173
:10599000BDE8008111EA0C1F0CEA131500D00CE0E1
:1059A00013EA0C1F00F025804FF00000F0BC81EAE4
:1059B000030101F00041BDE80081F0BCBDE80041F9
:1059C00081EA030100F09EB9F0BCBDE8004170B56A
:1059D00000F04AF9097EFC3E00F007B881EA0301B5
:1059E0004FF0000001F00041704781EA030100F030
:1059F00089B9F0BCBDE800414FF000002149704773
:105A0000FFFDFBF9F7F5F4F2F0EEEDEBE9E8E6E483
:105A1000E3E1E0DEDDDBDAD8D7D5D4D3D1D0CFCD0A
:105A2000CCCBCAC8C7C6C5C4C2C1C0BFBEBDBCBB43
:105A3000BAB9B8B7B6B5B4B3B2B1B0AFAEADACAB3E
:105A4000AAA9A8A8A7A6A5A4A3A3A2A1A09F9F9E18
:105A50009D9C9C9B9A9999989797969595949393CA
:105A6000929191908F8F8E8E8D8C8C8B8B8A898961
:105A700088888787868585848483838282818180E4
:105A80000000FF070000F87F4FEA41034FEA53533D
:105A9000A3F58063D3F11E03C8BFD3F1210C0CDD45
:105AA0004FF0004242EAC12242EA505232FA03FC6D
:105AB0008CEAE17CACEBE1707047102BC4BF002096
:105AC000704703F5787CBCF1FF3F04D06FF00042D3
:105AD00082EA2100704770B500F0C6F84992248030
